{
  "_format": "hh-sol-artifact-1",
  "contractName": "Hito",
  "sourceName": "contracts/Hito.sol",
  "abi": [
    {
      "inputs": [],
      "stateMutability": "nonpayable",
      "type": "constructor"
    },
    {
      "inputs": [
        {
          "internalType": "address",
          "name": "token",
          "type": "address"
        },
        {
          "internalType": "string",
          "name": "hash",
          "type": "string"
        },
        {
          "internalType": "uint128",
          "name": "id_start",
          "type": "uint128"
        },
        {
          "internalType": "uint128",
          "name": "id_end",
          "type": "uint128"
        },
        {
          "internalType": "uint128",
          "name": "maxBuy",
          "type": "uint128"
        },
        {
          "internalType": "uint128",
          "name": "votePeriod",
          "type": "uint128"
        },
        {
          "internalType": "uint256",
          "name": "salestart",
          "type": "uint256"
        },
        {
          "components": [
            {
              "internalType": "uint256",
              "name": "id",
              "type": "uint256"
            },
            {
              "internalType": "uint256",
              "name": "price",
              "type": "uint256"
            },
            {
              "internalType": "uint256",
              "name": "votestart",
              "type": "uint256"
            },
            {
              "internalType": "uint256",
              "name": "voteSum",
              "type": "uint256"
            },
            {
              "internalType": "uint256",
              "name": "voteYes",
              "type": "uint256"
            },
            {
              "internalType": "bool",
              "name": "claimed",
              "type": "bool"
            }
          ],
          "internalType": "struct Hito.MEILENSTEIN[]",
          "name": "meilensteine",
          "type": "tuple[]"
        }
      ],
      "name": "addPod",
      "outputs": [
        {
          "internalType": "bool",
          "name": "",
          "type": "bool"
        }
      ],
      "stateMutability": "nonpayable",
      "type": "function"
    },
    {
      "inputs": [
        {
          "internalType": "address",
          "name": "",
          "type": "address"
        }
      ],
      "name": "balances",
      "outputs": [
        {
          "internalType": "uint256",
          "name": "",
          "type": "uint256"
        }
      ],
      "stateMutability": "view",
      "type": "function"
    },
    {
      "inputs": [],
      "name": "getFullPodList",
      "outputs": [
        {
          "components": [
            {
              "internalType": "address",
              "name": "creator",
              "type": "address"
            },
            {
              "internalType": "string",
              "name": "hash",
              "type": "string"
            },
            {
              "internalType": "uint128",
              "name": "id_start",
              "type": "uint128"
            },
            {
              "internalType": "uint128",
              "name": "id_end",
              "type": "uint128"
            },
            {
              "internalType": "uint128",
              "name": "maxBuy",
              "type": "uint128"
            },
            {
              "internalType": "uint128",
              "name": "votePeriod",
              "type": "uint128"
            },
            {
              "internalType": "uint256",
              "name": "salestart",
              "type": "uint256"
            },
            {
              "internalType": "uint256",
              "name": "latestMeilenstein",
              "type": "uint256"
            },
            {
              "components": [
                {
                  "internalType": "uint256",
                  "name": "id",
                  "type": "uint256"
                },
                {
                  "internalType": "uint256",
                  "name": "price",
                  "type": "uint256"
                },
                {
                  "internalType": "uint256",
                  "name": "votestart",
                  "type": "uint256"
                },
                {
                  "internalType": "uint256",
                  "name": "voteSum",
                  "type": "uint256"
                },
                {
                  "internalType": "uint256",
                  "name": "voteYes",
                  "type": "uint256"
                },
                {
                  "internalType": "bool",
                  "name": "claimed",
                  "type": "bool"
                }
              ],
              "internalType": "struct Hito.MEILENSTEIN[]",
              "name": "meilensteine",
              "type": "tuple[]"
            }
          ],
          "internalType": "struct Hito.POD[]",
          "name": "",
          "type": "tuple[]"
        }
      ],
      "stateMutability": "view",
      "type": "function"
    },
    {
      "inputs": [
        {
          "internalType": "address",
          "name": "pod",
          "type": "address"
        }
      ],
      "name": "getLatesteilenstein",
      "outputs": [
        {
          "internalType": "uint256",
          "name": "",
          "type": "uint256"
        }
      ],
      "stateMutability": "view",
      "type": "function"
    },
    {
      "inputs": [
        {
          "internalType": "address",
          "name": "token",
          "type": "address"
        }
      ],
      "name": "getPod",
      "outputs": [
        {
          "components": [
            {
              "internalType": "address",
              "name": "creator",
              "type": "address"
            },
            {
              "internalType": "string",
              "name": "hash",
              "type": "string"
            },
            {
              "internalType": "uint128",
              "name": "id_start",
              "type": "uint128"
            },
            {
              "internalType": "uint128",
              "name": "id_end",
              "type": "uint128"
            },
            {
              "internalType": "uint128",
              "name": "maxBuy",
              "type": "uint128"
            },
            {
              "internalType": "uint128",
              "name": "votePeriod",
              "type": "uint128"
            },
            {
              "internalType": "uint256",
              "name": "salestart",
              "type": "uint256"
            },
            {
              "internalType": "uint256",
              "name": "latestMeilenstein",
              "type": "uint256"
            },
            {
              "components": [
                {
                  "internalType": "uint256",
                  "name": "id",
                  "type": "uint256"
                },
                {
                  "internalType": "uint256",
                  "name": "price",
                  "type": "uint256"
                },
                {
                  "internalType": "uint256",
                  "name": "votestart",
                  "type": "uint256"
                },
                {
                  "internalType": "uint256",
                  "name": "voteSum",
                  "type": "uint256"
                },
                {
                  "internalType": "uint256",
                  "name": "voteYes",
                  "type": "uint256"
                },
                {
                  "internalType": "bool",
                  "name": "claimed",
                  "type": "bool"
                }
              ],
              "internalType": "struct Hito.MEILENSTEIN[]",
              "name": "meilensteine",
              "type": "tuple[]"
            }
          ],
          "internalType": "struct Hito.POD",
          "name": "",
          "type": "tuple"
        }
      ],
      "stateMutability": "view",
      "type": "function"
    },
    {
      "inputs": [],
      "name": "getPodList",
      "outputs": [
        {
          "internalType": "address[]",
          "name": "",
          "type": "address[]"
        }
      ],
      "stateMutability": "view",
      "type": "function"
    },
    {
      "inputs": [],
      "name": "getTimestamp",
      "outputs": [
        {
          "internalType": "uint256",
          "name": "",
          "type": "uint256"
        }
      ],
      "stateMutability": "view",
      "type": "function"
    },
    {
      "inputs": [],
      "name": "owner",
      "outputs": [
        {
          "internalType": "address",
          "name": "",
          "type": "address"
        }
      ],
      "stateMutability": "view",
      "type": "function"
    },
    {
      "inputs": [
        {
          "internalType": "uint256",
          "name": "",
          "type": "uint256"
        }
      ],
      "name": "podList",
      "outputs": [
        {
          "internalType": "address",
          "name": "",
          "type": "address"
        }
      ],
      "stateMutability": "view",
      "type": "function"
    },
    {
      "inputs": [
        {
          "internalType": "address",
          "name": "",
          "type": "address"
        }
      ],
      "name": "pods",
      "outputs": [
        {
          "internalType": "address",
          "name": "creator",
          "type": "address"
        },
        {
          "internalType": "string",
          "name": "hash",
          "type": "string"
        },
        {
          "internalType": "uint128",
          "name": "id_start",
          "type": "uint128"
        },
        {
          "internalType": "uint128",
          "name": "id_end",
          "type": "uint128"
        },
        {
          "internalType": "uint128",
          "name": "maxBuy",
          "type": "uint128"
        },
        {
          "internalType": "uint128",
          "name": "votePeriod",
          "type": "uint128"
        },
        {
          "internalType": "uint256",
          "name": "salestart",
          "type": "uint256"
        },
        {
          "internalType": "uint256",
          "name": "latestMeilenstein",
          "type": "uint256"
        }
      ],
      "stateMutability": "view",
      "type": "function"
    },
    {
      "inputs": [
        {
          "internalType": "address",
          "name": "pod",
          "type": "address"
        },
        {
          "internalType": "bool",
          "name": "usersVote",
          "type": "bool"
        }
      ],
      "name": "vote",
      "outputs": [],
      "stateMutability": "nonpayable",
      "type": "function"
    },
    {
      "inputs": [
        {
          "internalType": "address",
          "name": "",
          "type": "address"
        },
        {
          "internalType": "uint256",
          "name": "",
          "type": "uint256"
        },
        {
          "internalType": "address",
          "name": "",
          "type": "address"
        }
      ],
      "name": "voted",
      "outputs": [
        {
          "internalType": "uint256",
          "name": "",
          "type": "uint256"
        }
      ],
      "stateMutability": "view",
      "type": "function"
    }
  ],
  "bytecode": "0x608060405234801561001057600080fd5b5033600360006101000a81548173ffffffffffffffffffffffffffffffffffffffff021916908373ffffffffffffffffffffffffffffffffffffffff160217905550612d72806100616000396000f3fe608060405234801561001057600080fd5b50600436106100b45760003560e01c8063bd041c4d11610071578063bd041c4d146101b5578063cbb08288146101d1578063e3b0f7c814610201578063ef8b73951461021f578063f28741651461023d578063f55f545c1461026d576100b4565b80630dd412a3146100b9578063188ec356146100e957806327e235e314610107578063695178f2146101375780638da5cb5b14610167578063a38406a314610185575b600080fd5b6100d360048036038101906100ce9190612054565b6102a4565b6040516100e091906125c7565b60405180910390f35b6100f16102e3565b6040516100fe91906127e8565b60405180910390f35b610121600480360381019061011c9190611e6c565b6102eb565b60405161012e91906127e8565b60405180910390f35b610151600480360381019061014c9190611efa565b610303565b60405161015e919061270b565b60405180910390f35b61016f610a9d565b60405161017c91906125c7565b60405180910390f35b61019f600480360381019061019a9190611e6c565b610ac3565b6040516101ac91906127c6565b60405180910390f35b6101cf60048036038101906101ca9190611ebe565b610dec565b005b6101eb60048036038101906101e69190611e6c565b61137e565b6040516101f891906127e8565b60405180910390f35b6102096113c9565b60405161021691906126c7565b60405180910390f35b610227611457565b60405161023491906126e9565b60405180910390f35b61025760048036038101906102529190611fdc565b6118c9565b60405161026491906127e8565b60405180910390f35b61028760048036038101906102829190611e6c565b6118fb565b60405161029b989796959493929190612642565b60405180910390f35b600281815481106102b457600080fd5b906000526020600020016000915054906101000a900473ffffffffffffffffffffffffffffffffffffffff1681565b600042905090565b60046020528060005260406000206000915090505481565b6000806000808b73ffffffffffffffffffffffffffffffffffffffff1673ffffffffffffffffffffffffffffffffffffffff1681526020019081526020016000206004015414610388576040517f08c379a000000000000000000000000000000000000000000000000000000000815260040161037f90612766565b60405180910390fd5b60008973ffffffffffffffffffffffffffffffffffffffff1663e985e9c533306040518363ffffffff1660e01b81526004016103c59291906125e2565b60206040518083038186803b1580156103dd57600080fd5b505afa1580156103f1573d6000803e3d6000fd5b505050506040513d601f19601f82011682018060405250810190610415919061202b565b90506000886fffffffffffffffffffffffffffffffff1690505b876fffffffffffffffffffffffffffffffff1681116105c65781610544573073ffffffffffffffffffffffffffffffffffffffff168b73ffffffffffffffffffffffffffffffffffffffff1663081812fc836040518263ffffffff1660e01b815260040161049d91906127e8565b60206040518083038186803b1580156104b557600080fd5b505afa1580156104c9573d6000803e3d6000fd5b505050506040513d601f19601f820116820180604052508101906104ed9190611e95565b73ffffffffffffffffffffffffffffffffffffffff1614610543576040517f08c379a000000000000000000000000000000000000000000000000000000000815260040161053a906127a6565b60405180910390fd5b5b8a73ffffffffffffffffffffffffffffffffffffffff166323b872dd3330846040518463ffffffff1660e01b81526004016105819392919061260b565b600060405180830381600087803b15801561059b57600080fd5b505af11580156105af573d6000803e3d6000fd5b5050505080806105be90612b06565b91505061042f565b50336000808c73ffffffffffffffffffffffffffffffffffffffff1673ffffffffffffffffffffffffffffffffffffffff16815260200190815260200160002060000160006101000a81548173ffffffffffffffffffffffffffffffffffffffff021916908373ffffffffffffffffffffffffffffffffffffffff160217905550886000808c73ffffffffffffffffffffffffffffffffffffffff1673ffffffffffffffffffffffffffffffffffffffff168152602001908152602001600020600101908051906020019061069c929190611af2565b50876000808c73ffffffffffffffffffffffffffffffffffffffff1673ffffffffffffffffffffffffffffffffffffffff16815260200190815260200160002060020160006101000a8154816fffffffffffffffffffffffffffffffff02191690836fffffffffffffffffffffffffffffffff160217905550866000808c73ffffffffffffffffffffffffffffffffffffffff1673ffffffffffffffffffffffffffffffffffffffff16815260200190815260200160002060020160106101000a8154816fffffffffffffffffffffffffffffffff02191690836fffffffffffffffffffffffffffffffff160217905550856000808c73ffffffffffffffffffffffffffffffffffffffff1673ffffffffffffffffffffffffffffffffffffffff16815260200190815260200160002060030160006101000a8154816fffffffffffffffffffffffffffffffff02191690836fffffffffffffffffffffffffffffffff160217905550846000808c73ffffffffffffffffffffffffffffffffffffffff1673ffffffffffffffffffffffffffffffffffffffff16815260200190815260200160002060030160106101000a8154816fffffffffffffffffffffffffffffffff02191690836fffffffffffffffffffffffffffffffff160217905550836000808c73ffffffffffffffffffffffffffffffffffffffff1673ffffffffffffffffffffffffffffffffffffffff1681526020019081526020016000206004018190555060008060008c73ffffffffffffffffffffffffffffffffffffffff1673ffffffffffffffffffffffffffffffffffffffff1681526020019081526020016000206005018190555060005b8351811015610a28576000808c73ffffffffffffffffffffffffffffffffffffffff1673ffffffffffffffffffffffffffffffffffffffff168152602001908152602001600020600601848281518110610990577f4e487b7100000000000000000000000000000000000000000000000000000000600052603260045260246000fd5b60200260200101519080600181540180825580915050600190039060005260206000209060060201600090919091909150600082015181600001556020820151816001015560408201518160020155606082015181600301556080820151816004015560a08201518160050160006101000a81548160ff02191690831515021790555050508080610a2090612b06565b91505061090d565b5060028a9080600181540180825580915050600190039060005260206000200160009091909190916101000a81548173ffffffffffffffffffffffffffffffffffffffff021916908373ffffffffffffffffffffffffffffffffffffffff160217905550600191505098975050505050505050565b600360009054906101000a900473ffffffffffffffffffffffffffffffffffffffff1681565b610acb611b78565b6000808373ffffffffffffffffffffffffffffffffffffffff1673ffffffffffffffffffffffffffffffffffffffff168152602001908152602001600020604051806101200160405290816000820160009054906101000a900473ffffffffffffffffffffffffffffffffffffffff1673ffffffffffffffffffffffffffffffffffffffff1673ffffffffffffffffffffffffffffffffffffffff168152602001600182018054610b7b90612aa3565b80601f0160208091040260200160405190810160405280929190818152602001828054610ba790612aa3565b8015610bf45780601f10610bc957610100808354040283529160200191610bf4565b820191906000526020600020905b815481529060010190602001808311610bd757829003601f168201915b505050505081526020016002820160009054906101000a90046fffffffffffffffffffffffffffffffff166fffffffffffffffffffffffffffffffff166fffffffffffffffffffffffffffffffff1681526020016002820160109054906101000a90046fffffffffffffffffffffffffffffffff166fffffffffffffffffffffffffffffffff166fffffffffffffffffffffffffffffffff1681526020016003820160009054906101000a90046fffffffffffffffffffffffffffffffff166fffffffffffffffffffffffffffffffff166fffffffffffffffffffffffffffffffff1681526020016003820160109054906101000a90046fffffffffffffffffffffffffffffffff166fffffffffffffffffffffffffffffffff166fffffffffffffffffffffffffffffffff168152602001600482015481526020016005820154815260200160068201805480602002602001604051908101604052809291908181526020016000905b82821015610ddd57838290600052602060002090600602016040518060c001604052908160008201548152602001600182015481526020016002820154815260200160038201548152602001600482015481526020016005820160009054906101000a900460ff16151515158152505081526020019060010190610d5e565b50505050815250509050919050565b81600081905060008173ffffffffffffffffffffffffffffffffffffffff166370a08231336040518263ffffffff1660e01b8152600401610e2d91906125c7565b60206040518083038186803b158015610e4557600080fd5b505afa158015610e59573d6000803e3d6000fd5b505050506040513d601f19601f82011682018060405250810190610e7d919061207d565b11610ebd576040517f08c379a0000000000000000000000000000000000000000000000000000000008152600401610eb490612746565b60405180910390fd5b6000610ec88361137e565b90506000600160008573ffffffffffffffffffffffffffffffffffffffff1673ffffffffffffffffffffffffffffffffffffffff168152602001908152602001600020600083815260200190815260200160002060003373ffffffffffffffffffffffffffffffffffffffff1673ffffffffffffffffffffffffffffffffffffffff1681526020019081526020016000205414610f9a576040517f08c379a0000000000000000000000000000000000000000000000000000000008152600401610f9190612786565b60405180910390fd5b6000429050806000808673ffffffffffffffffffffffffffffffffffffffff1673ffffffffffffffffffffffffffffffffffffffff1681526020019081526020016000206006018381548110611019577f4e487b7100000000000000000000000000000000000000000000000000000000600052603260045260246000fd5b9060005260206000209060060201600201541080156111475750603c6000808673ffffffffffffffffffffffffffffffffffffffff1673ffffffffffffffffffffffffffffffffffffffff16815260200190815260200160002060030160109054906101000a90046fffffffffffffffffffffffffffffffff1661109d91906129b3565b6fffffffffffffffffffffffffffffffff166000808673ffffffffffffffffffffffffffffffffffffffff1673ffffffffffffffffffffffffffffffffffffffff1681526020019081526020016000206006018381548110611128577f4e487b7100000000000000000000000000000000000000000000000000000000600052603260045260246000fd5b906000526020600020906006020160020154611144919061295d565b81105b611186576040517f08c379a000000000000000000000000000000000000000000000000000000000815260040161117d90612726565b60405180910390fd5b60006111918761137e565b905060008773ffffffffffffffffffffffffffffffffffffffff166370a08231336040518263ffffffff1660e01b81526004016111ce91906125c7565b60206040518083038186803b1580156111e657600080fd5b505afa1580156111fa573d6000803e3d6000fd5b505050506040513d601f19601f8201168201806040525081019061121e919061207d565b905061122b888383611a5b565b806000808a73ffffffffffffffffffffffffffffffffffffffff1673ffffffffffffffffffffffffffffffffffffffff16815260200190815260200160002060060183815481106112a5577f4e487b7100000000000000000000000000000000000000000000000000000000600052603260045260246000fd5b906000526020600020906006020160030160008282546112c5919061295d565b92505081905550861561137457806000808a73ffffffffffffffffffffffffffffffffffffffff1673ffffffffffffffffffffffffffffffffffffffff168152602001908152602001600020600601838154811061134c577f4e487b7100000000000000000000000000000000000000000000000000000000600052603260045260246000fd5b9060005260206000209060060201600401600082825461136c919061295d565b925050819055505b5050505050505050565b60008060008373ffffffffffffffffffffffffffffffffffffffff1673ffffffffffffffffffffffffffffffffffffffff168152602001908152602001600020600501549050919050565b6060600280548060200260200160405190810160405280929190818152602001828054801561144d57602002820191906000526020600020905b8160009054906101000a900473ffffffffffffffffffffffffffffffffffffffff1673ffffffffffffffffffffffffffffffffffffffff1681526020019060010190808311611403575b5050505050905090565b6060600060028054905067ffffffffffffffff8111156114a0577f4e487b7100000000000000000000000000000000000000000000000000000000600052604160045260246000fd5b6040519080825280602002602001820160405280156114d957816020015b6114c6611b78565b8152602001906001900390816114be5790505b50905060005b6002805490508110156118c15760008060028381548110611529577f4e487b7100000000000000000000000000000000000000000000000000000000600052603260045260246000fd5b9060005260206000200160009054906101000a900473ffffffffffffffffffffffffffffffffffffffff1673ffffffffffffffffffffffffffffffffffffffff1673ffffffffffffffffffffffffffffffffffffffff168152602001908152602001600020604051806101200160405290816000820160009054906101000a900473ffffffffffffffffffffffffffffffffffffffff1673ffffffffffffffffffffffffffffffffffffffff1673ffffffffffffffffffffffffffffffffffffffff16815260200160018201805461160090612aa3565b80601f016020809104026020016040519081016040528092919081815260200182805461162c90612aa3565b80156116795780601f1061164e57610100808354040283529160200191611679565b820191906000526020600020905b81548152906001019060200180831161165c57829003601f168201915b505050505081526020016002820160009054906101000a90046fffffffffffffffffffffffffffffffff166fffffffffffffffffffffffffffffffff166fffffffffffffffffffffffffffffffff1681526020016002820160109054906101000a90046fffffffffffffffffffffffffffffffff166fffffffffffffffffffffffffffffffff166fffffffffffffffffffffffffffffffff1681526020016003820160009054906101000a90046fffffffffffffffffffffffffffffffff166fffffffffffffffffffffffffffffffff166fffffffffffffffffffffffffffffffff1681526020016003820160109054906101000a90046fffffffffffffffffffffffffffffffff166fffffffffffffffffffffffffffffffff166fffffffffffffffffffffffffffffffff168152602001600482015481526020016005820154815260200160068201805480602002602001604051908101604052809291908181526020016000905b8282101561186257838290600052602060002090600602016040518060c001604052908160008201548152602001600182015481526020016002820154815260200160038201548152602001600482015481526020016005820160009054906101000a900460ff161515151581525050815260200190600101906117e3565b50505050815250508282815181106118a3577f4e487b7100000000000000000000000000000000000000000000000000000000600052603260045260246000fd5b602002602001018190525080806118b990612b06565b9150506114df565b508091505090565b600160205282600052604060002060205281600052604060002060205280600052604060002060009250925050505481565b60006020528060005260406000206000915090508060000160009054906101000a900473ffffffffffffffffffffffffffffffffffffffff169080600101805461194490612aa3565b80601f016020809104026020016040519081016040528092919081815260200182805461197090612aa3565b80156119bd5780601f10611992576101008083540402835291602001916119bd565b820191906000526020600020905b8154815290600101906020018083116119a057829003601f168201915b5050505050908060020160009054906101000a90046fffffffffffffffffffffffffffffffff16908060020160109054906101000a90046fffffffffffffffffffffffffffffffff16908060030160009054906101000a90046fffffffffffffffffffffffffffffffff16908060030160109054906101000a90046fffffffffffffffffffffffffffffffff16908060040154908060050154905088565b80600160008573ffffffffffffffffffffffffffffffffffffffff1673ffffffffffffffffffffffffffffffffffffffff168152602001908152602001600020600084815260200190815260200160002060003373ffffffffffffffffffffffffffffffffffffffff1673ffffffffffffffffffffffffffffffffffffffff16815260200190815260200160002081905550505050565b828054611afe90612aa3565b90600052602060002090601f016020900481019282611b205760008555611b67565b82601f10611b3957805160ff1916838001178555611b67565b82800160010185558215611b67579182015b82811115611b66578251825591602001919060010190611b4b565b5b509050611b749190611c22565b5090565b604051806101200160405280600073ffffffffffffffffffffffffffffffffffffffff1681526020016060815260200160006fffffffffffffffffffffffffffffffff16815260200160006fffffffffffffffffffffffffffffffff16815260200160006fffffffffffffffffffffffffffffffff16815260200160006fffffffffffffffffffffffffffffffff1681526020016000815260200160008152602001606081525090565b5b80821115611c3b576000816000905550600101611c23565b5090565b6000611c52611c4d84612828565b612803565b905080838252602082019050828560c0860282011115611c7157600080fd5b60005b85811015611ca15781611c878882611d91565b845260208401935060c08301925050600181019050611c74565b5050509392505050565b6000611cbe611cb984612854565b612803565b905082815260208101848484011115611cd657600080fd5b611ce1848285612a61565b509392505050565b600081359050611cf881612ce0565b92915050565b600081519050611d0d81612ce0565b92915050565b600082601f830112611d2457600080fd5b8135611d34848260208601611c3f565b91505092915050565b600081359050611d4c81612cf7565b92915050565b600081519050611d6181612cf7565b92915050565b600082601f830112611d7857600080fd5b8135611d88848260208601611cab565b91505092915050565b600060c08284031215611da357600080fd5b611dad60c0612803565b90506000611dbd84828501611e42565b6000830152506020611dd184828501611e42565b6020830152506040611de584828501611e42565b6040830152506060611df984828501611e42565b6060830152506080611e0d84828501611e42565b60808301525060a0611e2184828501611d3d565b60a08301525092915050565b600081359050611e3c81612d0e565b92915050565b600081359050611e5181612d25565b92915050565b600081519050611e6681612d25565b92915050565b600060208284031215611e7e57600080fd5b6000611e8c84828501611ce9565b91505092915050565b600060208284031215611ea757600080fd5b6000611eb584828501611cfe565b91505092915050565b60008060408385031215611ed157600080fd5b6000611edf85828601611ce9565b9250506020611ef085828601611d3d565b9150509250929050565b600080600080600080600080610100898b031215611f1757600080fd5b6000611f258b828c01611ce9565b985050602089013567ffffffffffffffff811115611f4257600080fd5b611f4e8b828c01611d67565b9750506040611f5f8b828c01611e2d565b9650506060611f708b828c01611e2d565b9550506080611f818b828c01611e2d565b94505060a0611f928b828c01611e2d565b93505060c0611fa38b828c01611e42565b92505060e089013567ffffffffffffffff811115611fc057600080fd5b611fcc8b828c01611d13565b9150509295985092959890939650565b600080600060608486031215611ff157600080fd5b6000611fff86828701611ce9565b935050602061201086828701611e42565b925050604061202186828701611ce9565b9150509250925092565b60006020828403121561203d57600080fd5b600061204b84828501611d52565b91505092915050565b60006020828403121561206657600080fd5b600061207484828501611e42565b91505092915050565b60006020828403121561208f57600080fd5b600061209d84828501611e57565b91505092915050565b60006120b283836120ea565b60208301905092915050565b60006120ca8383612378565b60c08301905092915050565b60006120e283836123f3565b905092915050565b6120f3816129fd565b82525050565b612102816129fd565b82525050565b6000612113826128b5565b61211d8185612908565b935061212883612885565b8060005b8381101561215957815161214088826120a6565b975061214b836128e1565b92505060018101905061212c565b5085935050505092915050565b6000612171826128c0565b61217b8185612919565b935061218683612895565b8060005b838110156121b757815161219e88826120be565b97506121a9836128ee565b92505060018101905061218a565b5085935050505092915050565b60006121cf826128cb565b6121d9818561292a565b9350836020820285016121eb856128a5565b8060005b85811015612227578484038952815161220885826120d6565b9450612213836128fb565b925060208a019950506001810190506121ef565b50829750879550505050505092915050565b61224281612a0f565b82525050565b61225181612a0f565b82525050565b6000612262826128d6565b61226c818561293b565b935061227c818560208601612a70565b61228581612bdc565b840191505092915050565b600061229b826128d6565b6122a5818561294c565b93506122b5818560208601612a70565b6122be81612bdc565b840191505092915050565b60006122d660128361294c565b91506122e182612bed565b602082019050919050565b60006122f9601b8361294c565b915061230482612c16565b602082019050919050565b600061231c60118361294c565b915061232782612c3f565b602082019050919050565b600061233f60128361294c565b915061234a82612c68565b602082019050919050565b6000612362602e8361294c565b915061236d82612c91565b604082019050919050565b60c08201600082015161238e60008501826125a9565b5060208201516123a160208501826125a9565b5060408201516123b460408501826125a9565b5060608201516123c760608501826125a9565b5060808201516123da60808501826125a9565b5060a08201516123ed60a0850182612239565b50505050565b60006101208301600083015161240c60008601826120ea565b50602083015184820360208601526124248282612257565b9150506040830151612439604086018261258b565b50606083015161244c606086018261258b565b50608083015161245f608086018261258b565b5060a083015161247260a086018261258b565b5060c083015161248560c08601826125a9565b5060e083015161249860e08601826125a9565b506101008301518482036101008601526124b28282612166565b9150508091505092915050565b6000610120830160008301516124d860008601826120ea565b50602083015184820360208601526124f08282612257565b9150506040830151612505604086018261258b565b506060830151612518606086018261258b565b50608083015161252b608086018261258b565b5060a083015161253e60a086018261258b565b5060c083015161255160c08601826125a9565b5060e083015161256460e08601826125a9565b5061010083015184820361010086015261257e8282612166565b9150508091505092915050565b61259481612a1b565b82525050565b6125a381612a1b565b82525050565b6125b281612a57565b82525050565b6125c181612a57565b82525050565b60006020820190506125dc60008301846120f9565b92915050565b60006040820190506125f760008301856120f9565b61260460208301846120f9565b9392505050565b600060608201905061262060008301866120f9565b61262d60208301856120f9565b61263a60408301846125b8565b949350505050565b600061010082019050612658600083018b6120f9565b818103602083015261266a818a612290565b9050612679604083018961259a565b612686606083018861259a565b612693608083018761259a565b6126a060a083018661259a565b6126ad60c08301856125b8565b6126ba60e08301846125b8565b9998505050505050505050565b600060208201905081810360008301526126e18184612108565b905092915050565b6000602082019050818103600083015261270381846121c4565b905092915050565b60006020820190506127206000830184612248565b92915050565b6000602082019050818103600083015261273f816122c9565b9050919050565b6000602082019050818103600083015261275f816122ec565b9050919050565b6000602082019050818103600083015261277f8161230f565b9050919050565b6000602082019050818103600083015261279f81612332565b9050919050565b600060208201905081810360008301526127bf81612355565b9050919050565b600060208201905081810360008301526127e081846124bf565b905092915050565b60006020820190506127fd60008301846125b8565b92915050565b600061280d61281e565b90506128198282612ad5565b919050565b6000604051905090565b600067ffffffffffffffff82111561284357612842612bad565b5b602082029050602081019050919050565b600067ffffffffffffffff82111561286f5761286e612bad565b5b61287882612bdc565b9050602081019050919050565b6000819050602082019050919050565b6000819050602082019050919050565b6000819050602082019050919050565b600081519050919050565b600081519050919050565b600081519050919050565b600081519050919050565b6000602082019050919050565b6000602082019050919050565b6000602082019050919050565b600082825260208201905092915050565b600082825260208201905092915050565b600082825260208201905092915050565b600082825260208201905092915050565b600082825260208201905092915050565b600061296882612a57565b915061297383612a57565b9250827fffffffffffffffffffffffffffffffffffffffffffffffffffffffffffffffff038211156129a8576129a7612b4f565b5b828201905092915050565b60006129be82612a1b565b91506129c983612a1b565b9250816fffffffffffffffffffffffffffffffff04831182151516156129f2576129f1612b4f565b5b828202905092915050565b6000612a0882612a37565b9050919050565b60008115159050919050565b60006fffffffffffffffffffffffffffffffff82169050919050565b600073ffffffffffffffffffffffffffffffffffffffff82169050919050565b6000819050919050565b82818337600083830152505050565b60005b83811015612a8e578082015181840152602081019050612a73565b83811115612a9d576000848401525b50505050565b60006002820490506001821680612abb57607f821691505b60208210811415612acf57612ace612b7e565b5b50919050565b612ade82612bdc565b810181811067ffffffffffffffff82111715612afd57612afc612bad565b5b80604052505050565b6000612b1182612a57565b91507fffffffffffffffffffffffffffffffffffffffffffffffffffffffffffffffff821415612b4457612b43612b4f565b5b600182019050919050565b7f4e487b7100000000000000000000000000000000000000000000000000000000600052601160045260246000fd5b7f4e487b7100000000000000000000000000000000000000000000000000000000600052602260045260246000fd5b7f4e487b7100000000000000000000000000000000000000000000000000000000600052604160045260246000fd5b6000601f19601f8301169050919050565b7f766f7465206973206e6f74206163746976650000000000000000000000000000600082015250565b7f75736572206973206e6f7420616c6c6f77656420746f20766f74650000000000600082015250565b7f706f6420616c7265616479206578697374000000000000000000000000000000600082015250565b7f7573657220616c726561647920766f7465640000000000000000000000000000600082015250565b7f6869746f20636f6e7472616374206973206e6f7420616c6c6f77656420746f2060008201527f7472616e7366657220746f6b656e000000000000000000000000000000000000602082015250565b612ce9816129fd565b8114612cf457600080fd5b50565b612d0081612a0f565b8114612d0b57600080fd5b50565b612d1781612a1b565b8114612d2257600080fd5b50565b612d2e81612a57565b8114612d3957600080fd5b5056fea2646970667358221220156d68448c46fdbc7c4acb09b93ceb33cae955db3d84bf942ec59208401688d164736f6c63430008020033",
  "linkReferences": {},
  "deployedLinkReferences": {}
}