{
  "_format": "hh-sol-artifact-1",
  "contractName": "Hito",
  "sourceName": "contracts/Hito.sol",
  "abi": [
    {
      "inputs": [
        {
          "internalType": "address",
          "name": "paymentToken",
          "type": "address"
        }
      ],
      "stateMutability": "nonpayable",
      "type": "constructor"
    },
    {
      "inputs": [
        {
          "internalType": "address",
          "name": "token",
          "type": "address"
        },
        {
          "internalType": "uint256",
          "name": "tokenSupply",
          "type": "uint256"
        },
        {
          "internalType": "string",
          "name": "name",
          "type": "string"
        },
        {
          "internalType": "string",
          "name": "hash",
          "type": "string"
        },
        {
          "internalType": "uint256",
          "name": "amount",
          "type": "uint256"
        },
        {
          "internalType": "uint256",
          "name": "fundingPeriod",
          "type": "uint256"
        },
        {
          "components": [
            {
              "internalType": "uint256",
              "name": "id",
              "type": "uint256"
            },
            {
              "internalType": "string",
              "name": "hash",
              "type": "string"
            },
            {
              "internalType": "uint256",
              "name": "meilensteinDate",
              "type": "uint256"
            }
          ],
          "internalType": "struct Hito.MEILENSTEIN[]",
          "name": "meilensteine",
          "type": "tuple[]"
        }
      ],
      "name": "addPod",
      "outputs": [
        {
          "internalType": "bool",
          "name": "",
          "type": "bool"
        }
      ],
      "stateMutability": "nonpayable",
      "type": "function"
    },
    {
      "inputs": [
        {
          "internalType": "address",
          "name": "pod",
          "type": "address"
        },
        {
          "internalType": "uint256",
          "name": "amount",
          "type": "uint256"
        }
      ],
      "name": "deposit",
      "outputs": [
        {
          "internalType": "uint256",
          "name": "tokenAmount",
          "type": "uint256"
        }
      ],
      "stateMutability": "nonpayable",
      "type": "function"
    },
    {
      "inputs": [
        {
          "internalType": "address",
          "name": "pod",
          "type": "address"
        }
      ],
      "name": "getDate",
      "outputs": [
        {
          "internalType": "uint256",
          "name": "",
          "type": "uint256"
        }
      ],
      "stateMutability": "view",
      "type": "function"
    },
    {
      "inputs": [],
      "name": "getFullPodList",
      "outputs": [
        {
          "components": [
            {
              "internalType": "address",
              "name": "creator",
              "type": "address"
            },
            {
              "internalType": "string",
              "name": "name",
              "type": "string"
            },
            {
              "internalType": "string",
              "name": "hash",
              "type": "string"
            },
            {
              "internalType": "uint256",
              "name": "amount",
              "type": "uint256"
            },
            {
              "internalType": "uint256",
              "name": "latestMeilenstein",
              "type": "uint256"
            },
            {
              "internalType": "uint256",
              "name": "fundingPeriod",
              "type": "uint256"
            },
            {
              "internalType": "uint256",
              "name": "start",
              "type": "uint256"
            },
            {
              "components": [
                {
                  "internalType": "uint256",
                  "name": "id",
                  "type": "uint256"
                },
                {
                  "internalType": "string",
                  "name": "hash",
                  "type": "string"
                },
                {
                  "internalType": "uint256",
                  "name": "meilensteinDate",
                  "type": "uint256"
                }
              ],
              "internalType": "struct Hito.MEILENSTEIN[]",
              "name": "meilensteine",
              "type": "tuple[]"
            }
          ],
          "internalType": "struct Hito.POD[]",
          "name": "",
          "type": "tuple[]"
        }
      ],
      "stateMutability": "view",
      "type": "function"
    },
    {
      "inputs": [
        {
          "internalType": "address",
          "name": "pod",
          "type": "address"
        }
      ],
      "name": "getLatestAmount",
      "outputs": [
        {
          "internalType": "uint256",
          "name": "",
          "type": "uint256"
        }
      ],
      "stateMutability": "view",
      "type": "function"
    },
    {
      "inputs": [
        {
          "internalType": "address",
          "name": "pod",
          "type": "address"
        }
      ],
      "name": "getLatestMeilenstein",
      "outputs": [
        {
          "internalType": "uint256",
          "name": "",
          "type": "uint256"
        }
      ],
      "stateMutability": "view",
      "type": "function"
    },
    {
      "inputs": [
        {
          "internalType": "address",
          "name": "token",
          "type": "address"
        }
      ],
      "name": "getPod",
      "outputs": [
        {
          "components": [
            {
              "internalType": "address",
              "name": "creator",
              "type": "address"
            },
            {
              "internalType": "string",
              "name": "name",
              "type": "string"
            },
            {
              "internalType": "string",
              "name": "hash",
              "type": "string"
            },
            {
              "internalType": "uint256",
              "name": "amount",
              "type": "uint256"
            },
            {
              "internalType": "uint256",
              "name": "latestMeilenstein",
              "type": "uint256"
            },
            {
              "internalType": "uint256",
              "name": "fundingPeriod",
              "type": "uint256"
            },
            {
              "internalType": "uint256",
              "name": "start",
              "type": "uint256"
            },
            {
              "components": [
                {
                  "internalType": "uint256",
                  "name": "id",
                  "type": "uint256"
                },
                {
                  "internalType": "string",
                  "name": "hash",
                  "type": "string"
                },
                {
                  "internalType": "uint256",
                  "name": "meilensteinDate",
                  "type": "uint256"
                }
              ],
              "internalType": "struct Hito.MEILENSTEIN[]",
              "name": "meilensteine",
              "type": "tuple[]"
            }
          ],
          "internalType": "struct Hito.POD",
          "name": "",
          "type": "tuple"
        }
      ],
      "stateMutability": "view",
      "type": "function"
    },
    {
      "inputs": [],
      "name": "getPodList",
      "outputs": [
        {
          "internalType": "address[]",
          "name": "",
          "type": "address[]"
        }
      ],
      "stateMutability": "view",
      "type": "function"
    },
    {
      "inputs": [],
      "name": "getTimestamp",
      "outputs": [
        {
          "internalType": "uint256",
          "name": "",
          "type": "uint256"
        }
      ],
      "stateMutability": "view",
      "type": "function"
    },
    {
      "inputs": [],
      "name": "owner",
      "outputs": [
        {
          "internalType": "address",
          "name": "",
          "type": "address"
        }
      ],
      "stateMutability": "view",
      "type": "function"
    },
    {
      "inputs": [
        {
          "internalType": "address",
          "name": "",
          "type": "address"
        }
      ],
      "name": "podBalances",
      "outputs": [
        {
          "internalType": "uint256",
          "name": "",
          "type": "uint256"
        }
      ],
      "stateMutability": "view",
      "type": "function"
    },
    {
      "inputs": [
        {
          "internalType": "uint256",
          "name": "",
          "type": "uint256"
        }
      ],
      "name": "podList",
      "outputs": [
        {
          "internalType": "address",
          "name": "",
          "type": "address"
        }
      ],
      "stateMutability": "view",
      "type": "function"
    },
    {
      "inputs": [
        {
          "internalType": "address",
          "name": "",
          "type": "address"
        }
      ],
      "name": "pods",
      "outputs": [
        {
          "internalType": "address",
          "name": "creator",
          "type": "address"
        },
        {
          "internalType": "string",
          "name": "name",
          "type": "string"
        },
        {
          "internalType": "string",
          "name": "hash",
          "type": "string"
        },
        {
          "internalType": "uint256",
          "name": "amount",
          "type": "uint256"
        },
        {
          "internalType": "uint256",
          "name": "latestMeilenstein",
          "type": "uint256"
        },
        {
          "internalType": "uint256",
          "name": "fundingPeriod",
          "type": "uint256"
        },
        {
          "internalType": "uint256",
          "name": "start",
          "type": "uint256"
        }
      ],
      "stateMutability": "view",
      "type": "function"
    },
    {
      "inputs": [
        {
          "internalType": "address",
          "name": "",
          "type": "address"
        },
        {
          "internalType": "address",
          "name": "",
          "type": "address"
        },
        {
          "internalType": "uint256",
          "name": "",
          "type": "uint256"
        }
      ],
      "name": "userBalances",
      "outputs": [
        {
          "internalType": "uint256",
          "name": "",
          "type": "uint256"
        }
      ],
      "stateMutability": "view",
      "type": "function"
    },
    {
      "inputs": [
        {
          "internalType": "address",
          "name": "pod",
          "type": "address"
        }
      ],
      "name": "withdraw",
      "outputs": [
        {
          "internalType": "uint256",
          "name": "",
          "type": "uint256"
        }
      ],
      "stateMutability": "nonpayable",
      "type": "function"
    }
  ],
  "bytecode": "0x60806040523480156200001157600080fd5b50604051620046e9380380620046e98339818101604052810190620000379190620000d7565b33600260006101000a81548173ffffffffffffffffffffffffffffffffffffffff021916908373ffffffffffffffffffffffffffffffffffffffff16021790555080600560006101000a81548173ffffffffffffffffffffffffffffffffffffffff021916908373ffffffffffffffffffffffffffffffffffffffff1602179055505062000151565b600081519050620000d18162000137565b92915050565b600060208284031215620000ea57600080fd5b6000620000fa84828501620000c0565b91505092915050565b6000620001108262000117565b9050919050565b600073ffffffffffffffffffffffffffffffffffffffff82169050919050565b620001428162000103565b81146200014e57600080fd5b50565b61458880620001616000396000f3fe608060405234801561001057600080fd5b50600436106100f55760003560e01c8063beb621af11610097578063e3b0f7c811610066578063e3b0f7c8146102e6578063ef8b739514610304578063f55f545c14610322578063f6198e4914610358576100f5565b8063beb621af14610226578063d3f475ea14610256578063d534530214610286578063d7304748146102b6576100f5565b806351cff8d9116100d357806351cff8d9146101785780635226214a146101a85780638da5cb5b146101d8578063a38406a3146101f6576100f5565b80630dd412a3146100fa578063188ec3561461012a57806347e7ef2414610148575b600080fd5b610114600480360381019061010f919061379b565b610388565b6040516101219190613cf3565b60405180910390f35b6101326103c7565b60405161013f9190613f75565b60405180910390f35b610162600480360381019061015d9190613650565b6103cf565b60405161016f9190613f75565b60405180910390f35b610192600480360381019061018d91906135d8565b610df8565b60405161019f9190613f75565b60405180910390f35b6101c260048036038101906101bd91906135d8565b611894565b6040516101cf9190613f75565b60405180910390f35b6101e0611c24565b6040516101ed9190613cf3565b60405180910390f35b610210600480360381019061020b91906135d8565b611c4a565b60405161021d9190613f53565b60405180910390f35b610240600480360381019061023b91906135d8565b611f4a565b60405161024d9190613f75565b60405180910390f35b610270600480360381019061026b91906135d8565b6122a4565b60405161027d9190613f75565b60405180910390f35b6102a0600480360381019061029b91906135d8565b6122bc565b6040516102ad9190613f75565b60405180910390f35b6102d060048036038101906102cb919061368c565b612307565b6040516102dd9190613e58565b60405180910390f35b6102ee6128f2565b6040516102fb9190613e14565b60405180910390f35b61030c612980565b6040516103199190613e36565b60405180910390f35b61033c600480360381019061033791906135d8565b612dc9565b60405161034f9796959493929190613d6e565b60405180910390f35b610372600480360381019061036d9190613601565b612f3b565b60405161037f9190613f75565b60405180910390f35b6001818154811061039857600080fd5b906000526020600020016000915054906101000a900473ffffffffffffffffffffffffffffffffffffffff1681565b600042905090565b60008260008060008373ffffffffffffffffffffffffffffffffffffffff1673ffffffffffffffffffffffffffffffffffffffff168152602001908152602001600020604051806101000160405290816000820160009054906101000a900473ffffffffffffffffffffffffffffffffffffffff1673ffffffffffffffffffffffffffffffffffffffff1673ffffffffffffffffffffffffffffffffffffffff16815260200160018201805461048490614258565b80601f01602080910402602001604051908101604052809291908181526020018280546104b090614258565b80156104fd5780601f106104d2576101008083540402835291602001916104fd565b820191906000526020600020905b8154815290600101906020018083116104e057829003601f168201915b5050505050815260200160028201805461051690614258565b80601f016020809104026020016040519081016040528092919081815260200182805461054290614258565b801561058f5780601f106105645761010080835404028352916020019161058f565b820191906000526020600020905b81548152906001019060200180831161057257829003601f168201915b505050505081526020016003820154815260200160048201548152602001600582015481526020016006820154815260200160078201805480602002602001604051908101604052809291908181526020016000905b828210156106bd57838290600052602060002090600302016040518060600160405290816000820154815260200160018201805461062290614258565b80601f016020809104026020016040519081016040528092919081815260200182805461064e90614258565b801561069b5780601f106106705761010080835404028352916020019161069b565b820191906000526020600020905b81548152906001019060200180831161067e57829003601f168201915b50505050508152602001600282015481525050815260200190600101906105e5565b50505050815250509050428160e00151826080015181518110610709577f4e487b7100000000000000000000000000000000000000000000000000000000600052603260045260246000fd5b6020026020010151604001511015610756576040517f08c379a000000000000000000000000000000000000000000000000000000000815260040161074d90613f13565b60405180910390fd5b428160a001518260e0015183608001518151811061079d577f4e487b7100000000000000000000000000000000000000000000000000000000600052603260045260246000fd5b6020026020010151604001516107b391906140ea565b10156107f4576040517f08c379a00000000000000000000000000000000000000000000000000000000081526004016107eb90613ef3565b60405180910390fd5b60008060008773ffffffffffffffffffffffffffffffffffffffff1673ffffffffffffffffffffffffffffffffffffffff168152602001908152602001600020604051806101000160405290816000820160009054906101000a900473ffffffffffffffffffffffffffffffffffffffff1673ffffffffffffffffffffffffffffffffffffffff1673ffffffffffffffffffffffffffffffffffffffff1681526020016001820180546108a690614258565b80601f01602080910402602001604051908101604052809291908181526020018280546108d290614258565b801561091f5780601f106108f45761010080835404028352916020019161091f565b820191906000526020600020905b81548152906001019060200180831161090257829003601f168201915b5050505050815260200160028201805461093890614258565b80601f016020809104026020016040519081016040528092919081815260200182805461096490614258565b80156109b15780601f10610986576101008083540402835291602001916109b1565b820191906000526020600020905b81548152906001019060200180831161099457829003601f168201915b505050505081526020016003820154815260200160048201548152602001600582015481526020016006820154815260200160078201805480602002602001604051908101604052809291908181526020016000905b82821015610adf578382906000526020600020906003020160405180606001604052908160008201548152602001600182018054610a4490614258565b80601f0160208091040260200160405190810160405280929190818152602001828054610a7090614258565b8015610abd5780601f10610a9257610100808354040283529160200191610abd565b820191906000526020600020905b815481529060010190602001808311610aa057829003601f168201915b5050505050815260200160028201548152505081526020019060010190610a07565b50505050815250509050610af286612f6d565b8060e001515181608001511415610b3e576040517f08c379a0000000000000000000000000000000000000000000000000000000008152600401610b3590613f33565b60405180910390fd5b84600560009054906101000a900473ffffffffffffffffffffffffffffffffffffffff1673ffffffffffffffffffffffffffffffffffffffff1663dd62ed3e33306040518363ffffffff1660e01b8152600401610b9c929190613d0e565b60206040518083038186803b158015610bb457600080fd5b505afa158015610bc8573d6000803e3d6000fd5b505050506040513d601f19601f82011682018060405250810190610bec91906137c4565b1015610c2d576040517f08c379a0000000000000000000000000000000000000000000000000000000008152600401610c2490613eb3565b60405180910390fd5b600560009054906101000a900473ffffffffffffffffffffffffffffffffffffffff1673ffffffffffffffffffffffffffffffffffffffff166323b872dd3330886040518463ffffffff1660e01b8152600401610c8c93929190613d37565b602060405180830381600087803b158015610ca657600080fd5b505af1158015610cba573d6000803e3d6000fd5b505050506040513d601f19601f82011682018060405250810190610cde9190613772565b5084600360008873ffffffffffffffffffffffffffffffffffffffff1673ffffffffffffffffffffffffffffffffffffffff1681526020019081526020016000206000828254610d2e91906140ea565b9250508190555084600460003373ffffffffffffffffffffffffffffffffffffffff1673ffffffffffffffffffffffffffffffffffffffff16815260200190815260200160002060008873ffffffffffffffffffffffffffffffffffffffff1673ffffffffffffffffffffffffffffffffffffffff1681526020019081526020016000206000836080015181526020019081526020016000206000828254610dd691906140ea565b92505081905550806060015185610ded9190614140565b935050505092915050565b60008160008060008373ffffffffffffffffffffffffffffffffffffffff1673ffffffffffffffffffffffffffffffffffffffff168152602001908152602001600020604051806101000160405290816000820160009054906101000a900473ffffffffffffffffffffffffffffffffffffffff1673ffffffffffffffffffffffffffffffffffffffff1673ffffffffffffffffffffffffffffffffffffffff168152602001600182018054610ead90614258565b80601f0160208091040260200160405190810160405280929190818152602001828054610ed990614258565b8015610f265780601f10610efb57610100808354040283529160200191610f26565b820191906000526020600020905b815481529060010190602001808311610f0957829003601f168201915b50505050508152602001600282018054610f3f90614258565b80601f0160208091040260200160405190810160405280929190818152602001828054610f6b90614258565b8015610fb85780601f10610f8d57610100808354040283529160200191610fb8565b820191906000526020600020905b815481529060010190602001808311610f9b57829003601f168201915b505050505081526020016003820154815260200160048201548152602001600582015481526020016006820154815260200160078201805480602002602001604051908101604052809291908181526020016000905b828210156110e657838290600052602060002090600302016040518060600160405290816000820154815260200160018201805461104b90614258565b80601f016020809104026020016040519081016040528092919081815260200182805461107790614258565b80156110c45780601f10611099576101008083540402835291602001916110c4565b820191906000526020600020905b8154815290600101906020018083116110a757829003601f168201915b505050505081526020016002820154815250508152602001906001019061100e565b50505050815250509050428160e00151826080015181518110611132577f4e487b7100000000000000000000000000000000000000000000000000000000600052603260045260246000fd5b602002602001015160400151101561117f576040517f08c379a000000000000000000000000000000000000000000000000000000000815260040161117690613f13565b60405180910390fd5b428160a001518260e001518360800151815181106111c6577f4e487b7100000000000000000000000000000000000000000000000000000000600052603260045260246000fd5b6020026020010151604001516111dc91906140ea565b101561121d576040517f08c379a000000000000000000000000000000000000000000000000000000000815260040161121490613ef3565b60405180910390fd5b61122684612f6d565b60008060008673ffffffffffffffffffffffffffffffffffffffff1673ffffffffffffffffffffffffffffffffffffffff168152602001908152602001600020604051806101000160405290816000820160009054906101000a900473ffffffffffffffffffffffffffffffffffffffff1673ffffffffffffffffffffffffffffffffffffffff1673ffffffffffffffffffffffffffffffffffffffff1681526020016001820180546112d890614258565b80601f016020809104026020016040519081016040528092919081815260200182805461130490614258565b80156113515780601f1061132657610100808354040283529160200191611351565b820191906000526020600020905b81548152906001019060200180831161133457829003601f168201915b5050505050815260200160028201805461136a90614258565b80601f016020809104026020016040519081016040528092919081815260200182805461139690614258565b80156113e35780601f106113b8576101008083540402835291602001916113e3565b820191906000526020600020905b8154815290600101906020018083116113c657829003601f168201915b505050505081526020016003820154815260200160048201548152602001600582015481526020016006820154815260200160078201805480602002602001604051908101604052809291908181526020016000905b8282101561151157838290600052602060002090600302016040518060600160405290816000820154815260200160018201805461147690614258565b80601f01602080910402602001604051908101604052809291908181526020018280546114a290614258565b80156114ef5780601f106114c4576101008083540402835291602001916114ef565b820191906000526020600020905b8154815290600101906020018083116114d257829003601f168201915b5050505050815260200160028201548152505081526020019060010190611439565b505050508152505090506000816080015111611562576040517f08c379a000000000000000000000000000000000000000000000000000000000815260040161155990613e93565b60405180910390fd5b60008160e00151518260800151141561158d576001826080015161158691906140ea565b9050611595565b816080015190505b600080600090505b828110156116e657600460003373ffffffffffffffffffffffffffffffffffffffff1673ffffffffffffffffffffffffffffffffffffffff16815260200190815260200160002060008973ffffffffffffffffffffffffffffffffffffffff1673ffffffffffffffffffffffffffffffffffffffff1681526020019081526020016000206000828152602001908152602001600020548261163e91906140ea565b91506000600460003373ffffffffffffffffffffffffffffffffffffffff1673ffffffffffffffffffffffffffffffffffffffff16815260200190815260200160002060008a73ffffffffffffffffffffffffffffffffffffffff1673ffffffffffffffffffffffffffffffffffffffff16815260200190815260200160002060008381526020019081526020016000208190555080806116de906142bb565b91505061159d565b5080600360008973ffffffffffffffffffffffffffffffffffffffff1673ffffffffffffffffffffffffffffffffffffffff1681526020019081526020016000206000828254611736919061419a565b92505081905550600560009054906101000a900473ffffffffffffffffffffffffffffffffffffffff1673ffffffffffffffffffffffffffffffffffffffff1663a9059cbb33836040518363ffffffff1660e01b815260040161179a929190613deb565b602060405180830381600087803b1580156117b457600080fd5b505af11580156117c8573d6000803e3d6000fd5b505050506040513d601f19601f820116820180604052508101906117ec9190613772565b508673ffffffffffffffffffffffffffffffffffffffff1663a9059cbb3385606001518461181a9190614140565b6040518363ffffffff1660e01b8152600401611837929190613deb565b602060405180830381600087803b15801561185157600080fd5b505af1158015611865573d6000803e3d6000fd5b505050506040513d601f19601f820116820180604052508101906118899190613772565b505050505050919050565b6000806000808473ffffffffffffffffffffffffffffffffffffffff1673ffffffffffffffffffffffffffffffffffffffff168152602001908152602001600020604051806101000160405290816000820160009054906101000a900473ffffffffffffffffffffffffffffffffffffffff1673ffffffffffffffffffffffffffffffffffffffff1673ffffffffffffffffffffffffffffffffffffffff16815260200160018201805461194790614258565b80601f016020809104026020016040519081016040528092919081815260200182805461197390614258565b80156119c05780601f10611995576101008083540402835291602001916119c0565b820191906000526020600020905b8154815290600101906020018083116119a357829003601f168201915b505050505081526020016002820180546119d990614258565b80601f0160208091040260200160405190810160405280929190818152602001828054611a0590614258565b8015611a525780601f10611a2757610100808354040283529160200191611a52565b820191906000526020600020905b815481529060010190602001808311611a3557829003601f168201915b505050505081526020016003820154815260200160048201548152602001600582015481526020016006820154815260200160078201805480602002602001604051908101604052809291908181526020016000905b82821015611b80578382906000526020600020906003020160405180606001604052908160008201548152602001600182018054611ae590614258565b80601f0160208091040260200160405190810160405280929190818152602001828054611b1190614258565b8015611b5e5780601f10611b3357610100808354040283529160200191611b5e565b820191906000526020600020905b815481529060010190602001808311611b4157829003601f168201915b5050505050815260200160028201548152505081526020019060010190611aa8565b50505050815250509050600460003373ffffffffffffffffffffffffffffffffffffffff1673ffffffffffffffffffffffffffffffffffffffff16815260200190815260200160002060008473ffffffffffffffffffffffffffffffffffffffff1673ffffffffffffffffffffffffffffffffffffffff16815260200190815260200160002060008260800151815260200190815260200160002054915050919050565b600260009054906101000a900473ffffffffffffffffffffffffffffffffffffffff1681565b611c5261331f565b6000808373ffffffffffffffffffffffffffffffffffffffff1673ffffffffffffffffffffffffffffffffffffffff168152602001908152602001600020604051806101000160405290816000820160009054906101000a900473ffffffffffffffffffffffffffffffffffffffff1673ffffffffffffffffffffffffffffffffffffffff1673ffffffffffffffffffffffffffffffffffffffff168152602001600182018054611d0290614258565b80601f0160208091040260200160405190810160405280929190818152602001828054611d2e90614258565b8015611d7b5780601f10611d5057610100808354040283529160200191611d7b565b820191906000526020600020905b815481529060010190602001808311611d5e57829003601f168201915b50505050508152602001600282018054611d9490614258565b80601f0160208091040260200160405190810160405280929190818152602001828054611dc090614258565b8015611e0d5780601f10611de257610100808354040283529160200191611e0d565b820191906000526020600020905b815481529060010190602001808311611df057829003601f168201915b505050505081526020016003820154815260200160048201548152602001600582015481526020016006820154815260200160078201805480602002602001604051908101604052809291908181526020016000905b82821015611f3b578382906000526020600020906003020160405180606001604052908160008201548152602001600182018054611ea090614258565b80601f0160208091040260200160405190810160405280929190818152602001828054611ecc90614258565b8015611f195780601f10611eee57610100808354040283529160200191611f19565b820191906000526020600020905b815481529060010190602001808311611efc57829003601f168201915b5050505050815260200160028201548152505081526020019060010190611e63565b50505050815250509050919050565b6000806000808473ffffffffffffffffffffffffffffffffffffffff1673ffffffffffffffffffffffffffffffffffffffff168152602001908152602001600020604051806101000160405290816000820160009054906101000a900473ffffffffffffffffffffffffffffffffffffffff1673ffffffffffffffffffffffffffffffffffffffff1673ffffffffffffffffffffffffffffffffffffffff168152602001600182018054611ffd90614258565b80601f016020809104026020016040519081016040528092919081815260200182805461202990614258565b80156120765780601f1061204b57610100808354040283529160200191612076565b820191906000526020600020905b81548152906001019060200180831161205957829003601f168201915b5050505050815260200160028201805461208f90614258565b80601f01602080910402602001604051908101604052809291908181526020018280546120bb90614258565b80156121085780601f106120dd57610100808354040283529160200191612108565b820191906000526020600020905b8154815290600101906020018083116120eb57829003601f168201915b505050505081526020016003820154815260200160048201548152602001600582015481526020016006820154815260200160078201805480602002602001604051908101604052809291908181526020016000905b8282101561223657838290600052602060002090600302016040518060600160405290816000820154815260200160018201805461219b90614258565b80601f01602080910402602001604051908101604052809291908181526020018280546121c790614258565b80156122145780601f106121e957610100808354040283529160200191612214565b820191906000526020600020905b8154815290600101906020018083116121f757829003601f168201915b505050505081526020016002820154815250508152602001906001019061215e565b505050508152505090508060a001518160e00151826080015181518110612286577f4e487b7100000000000000000000000000000000000000000000000000000000600052603260045260246000fd5b60200260200101516040015161229c91906140ea565b915050919050565b60036020528060005260406000206000915090505481565b60008060008373ffffffffffffffffffffffffffffffffffffffff1673ffffffffffffffffffffffffffffffffffffffff168152602001908152602001600020600401549050919050565b6000868873ffffffffffffffffffffffffffffffffffffffff1663dd62ed3e33306040518363ffffffff1660e01b8152600401612345929190613d0e565b60206040518083038186803b15801561235d57600080fd5b505afa158015612371573d6000803e3d6000fd5b505050506040513d601f19601f8201168201806040525081019061239591906137c4565b10156123d6576040517f08c379a00000000000000000000000000000000000000000000000000000000081526004016123cd90613e73565b60405180910390fd5b868873ffffffffffffffffffffffffffffffffffffffff166370a08231336040518263ffffffff1660e01b81526004016124109190613cf3565b60206040518083038186803b15801561242857600080fd5b505afa15801561243c573d6000803e3d6000fd5b505050506040513d601f19601f8201168201806040525081019061246091906137c4565b10156124a1576040517f08c379a000000000000000000000000000000000000000000000000000000000815260040161249890613ed3565b60405180910390fd5b8773ffffffffffffffffffffffffffffffffffffffff166323b872dd33308a6040518463ffffffff1660e01b81526004016124de93929190613d37565b602060405180830381600087803b1580156124f857600080fd5b505af115801561250c573d6000803e3d6000fd5b505050506040513d601f19601f820116820180604052508101906125309190613772565b50336000808a73ffffffffffffffffffffffffffffffffffffffff1673ffffffffffffffffffffffffffffffffffffffff16815260200190815260200160002060000160006101000a81548173ffffffffffffffffffffffffffffffffffffffff021916908373ffffffffffffffffffffffffffffffffffffffff160217905550856000808a73ffffffffffffffffffffffffffffffffffffffff1673ffffffffffffffffffffffffffffffffffffffff168152602001908152602001600020600101908051906020019061260692919061337a565b50846000808a73ffffffffffffffffffffffffffffffffffffffff1673ffffffffffffffffffffffffffffffffffffffff168152602001908152602001600020600201908051906020019061265c92919061337a565b50836000808a73ffffffffffffffffffffffffffffffffffffffff1673ffffffffffffffffffffffffffffffffffffffff16815260200190815260200160002060030181905550603c836126b09190614140565b6000808a73ffffffffffffffffffffffffffffffffffffffff1673ffffffffffffffffffffffffffffffffffffffff16815260200190815260200160002060050181905550426000808a73ffffffffffffffffffffffffffffffffffffffff1673ffffffffffffffffffffffffffffffffffffffff1681526020019081526020016000206006018190555060008060008a73ffffffffffffffffffffffffffffffffffffffff1673ffffffffffffffffffffffffffffffffffffffff1681526020019081526020016000206004018190555060005b825181101561287f576000808a73ffffffffffffffffffffffffffffffffffffffff1673ffffffffffffffffffffffffffffffffffffffff168152602001908152602001600020600701838281518110612808577f4e487b7100000000000000000000000000000000000000000000000000000000600052603260045260246000fd5b6020026020010151908060018154018082558091505060019003906000526020600020906003020160009091909190915060008201518160000155602082015181600101908051906020019061285f92919061337a565b506040820151816002015550508080612877906142bb565b915050612785565b506001889080600181540180825580915050600190039060005260206000200160009091909190916101000a81548173ffffffffffffffffffffffffffffffffffffffff021916908373ffffffffffffffffffffffffffffffffffffffff16021790555060019050979650505050505050565b6060600180548060200260200160405190810160405280929190818152602001828054801561297657602002820191906000526020600020905b8160009054906101000a900473ffffffffffffffffffffffffffffffffffffffff1673ffffffffffffffffffffffffffffffffffffffff168152602001906001019080831161292c575b5050505050905090565b6060600060018054905067ffffffffffffffff8111156129c9577f4e487b7100000000000000000000000000000000000000000000000000000000600052604160045260246000fd5b604051908082528060200260200182016040528015612a0257816020015b6129ef61331f565b8152602001906001900390816129e75790505b50905060005b600180549050811015612dc15760008060018381548110612a52577f4e487b7100000000000000000000000000000000000000000000000000000000600052603260045260246000fd5b9060005260206000200160009054906101000a900473ffffffffffffffffffffffffffffffffffffffff1673ffffffffffffffffffffffffffffffffffffffff1673ffffffffffffffffffffffffffffffffffffffff168152602001908152602001600020604051806101000160405290816000820160009054906101000a900473ffffffffffffffffffffffffffffffffffffffff1673ffffffffffffffffffffffffffffffffffffffff1673ffffffffffffffffffffffffffffffffffffffff168152602001600182018054612b2990614258565b80601f0160208091040260200160405190810160405280929190818152602001828054612b5590614258565b8015612ba25780601f10612b7757610100808354040283529160200191612ba2565b820191906000526020600020905b815481529060010190602001808311612b8557829003601f168201915b50505050508152602001600282018054612bbb90614258565b80601f0160208091040260200160405190810160405280929190818152602001828054612be790614258565b8015612c345780601f10612c0957610100808354040283529160200191612c34565b820191906000526020600020905b815481529060010190602001808311612c1757829003601f168201915b505050505081526020016003820154815260200160048201548152602001600582015481526020016006820154815260200160078201805480602002602001604051908101604052809291908181526020016000905b82821015612d62578382906000526020600020906003020160405180606001604052908160008201548152602001600182018054612cc790614258565b80601f0160208091040260200160405190810160405280929190818152602001828054612cf390614258565b8015612d405780601f10612d1557610100808354040283529160200191612d40565b820191906000526020600020905b815481529060010190602001808311612d2357829003601f168201915b5050505050815260200160028201548152505081526020019060010190612c8a565b5050505081525050828281518110612da3577f4e487b7100000000000000000000000000000000000000000000000000000000600052603260045260246000fd5b60200260200101819052508080612db9906142bb565b915050612a08565b508091505090565b60006020528060005260406000206000915090508060000160009054906101000a900473ffffffffffffffffffffffffffffffffffffffff1690806001018054612e1290614258565b80601f0160208091040260200160405190810160405280929190818152602001828054612e3e90614258565b8015612e8b5780601f10612e6057610100808354040283529160200191612e8b565b820191906000526020600020905b815481529060010190602001808311612e6e57829003601f168201915b505050505090806002018054612ea090614258565b80601f0160208091040260200160405190810160405280929190818152602001828054612ecc90614258565b8015612f195780601f10612eee57610100808354040283529160200191612f19565b820191906000526020600020905b815481529060010190602001808311612efc57829003601f168201915b5050505050908060030154908060040154908060050154908060060154905087565b600460205282600052604060002060205281600052604060002060205280600052604060002060009250925050505481565b60008060008373ffffffffffffffffffffffffffffffffffffffff1673ffffffffffffffffffffffffffffffffffffffff168152602001908152602001600020604051806101000160405290816000820160009054906101000a900473ffffffffffffffffffffffffffffffffffffffff1673ffffffffffffffffffffffffffffffffffffffff1673ffffffffffffffffffffffffffffffffffffffff16815260200160018201805461301f90614258565b80601f016020809104026020016040519081016040528092919081815260200182805461304b90614258565b80156130985780601f1061306d57610100808354040283529160200191613098565b820191906000526020600020905b81548152906001019060200180831161307b57829003601f168201915b505050505081526020016002820180546130b190614258565b80601f01602080910402602001604051908101604052809291908181526020018280546130dd90614258565b801561312a5780601f106130ff5761010080835404028352916020019161312a565b820191906000526020600020905b81548152906001019060200180831161310d57829003601f168201915b505050505081526020016003820154815260200160048201548152602001600582015481526020016006820154815260200160078201805480602002602001604051908101604052809291908181526020016000905b828210156132585783829060005260206000209060030201604051806060016040529081600082015481526020016001820180546131bd90614258565b80601f01602080910402602001604051908101604052809291908181526020018280546131e990614258565b80156132365780601f1061320b57610100808354040283529160200191613236565b820191906000526020600020905b81548152906001019060200180831161321957829003601f168201915b5050505050815260200160028201548152505081526020019060010190613180565b505050508152505090508060e001516001826080015161327891906140ea565b815181106132af577f4e487b7100000000000000000000000000000000000000000000000000000000600052603260045260246000fd5b602002602001015160400151421061331b5760016000808473ffffffffffffffffffffffffffffffffffffffff1673ffffffffffffffffffffffffffffffffffffffff168152602001908152602001600020600401600082825461331391906140ea565b925050819055505b5050565b604051806101000160405280600073ffffffffffffffffffffffffffffffffffffffff168152602001606081526020016060815260200160008152602001600081526020016000815260200160008152602001606081525090565b82805461338690614258565b90600052602060002090601f0160209004810192826133a857600085556133ef565b82601f106133c157805160ff19168380011785556133ef565b828001600101855582156133ef579182015b828111156133ee5782518255916020019190600101906133d3565b5b5090506133fc9190613400565b5090565b5b80821115613419576000816000905550600101613401565b5090565b600061343061342b84613fb5565b613f90565b9050808382526020820190508260005b8581101561347057813585016134568882613536565b845260208401935060208301925050600181019050613440565b5050509392505050565b600061348d61348884613fe1565b613f90565b9050828152602081018484840111156134a557600080fd5b6134b0848285614216565b509392505050565b6000813590506134c78161450d565b92915050565b600082601f8301126134de57600080fd5b81356134ee84826020860161341d565b91505092915050565b60008151905061350681614524565b92915050565b600082601f83011261351d57600080fd5b813561352d84826020860161347a565b91505092915050565b60006060828403121561354857600080fd5b6135526060613f90565b90506000613562848285016135ae565b600083015250602082013567ffffffffffffffff81111561358257600080fd5b61358e8482850161350c565b60208301525060406135a2848285016135ae565b60408301525092915050565b6000813590506135bd8161453b565b92915050565b6000815190506135d28161453b565b92915050565b6000602082840312156135ea57600080fd5b60006135f8848285016134b8565b91505092915050565b60008060006060848603121561361657600080fd5b6000613624868287016134b8565b9350506020613635868287016134b8565b9250506040613646868287016135ae565b9150509250925092565b6000806040838503121561366357600080fd5b6000613671858286016134b8565b9250506020613682858286016135ae565b9150509250929050565b600080600080600080600060e0888a0312156136a757600080fd5b60006136b58a828b016134b8565b97505060206136c68a828b016135ae565b965050604088013567ffffffffffffffff8111156136e357600080fd5b6136ef8a828b0161350c565b955050606088013567ffffffffffffffff81111561370c57600080fd5b6137188a828b0161350c565b94505060806137298a828b016135ae565b93505060a061373a8a828b016135ae565b92505060c088013567ffffffffffffffff81111561375757600080fd5b6137638a828b016134cd565b91505092959891949750929550565b60006020828403121561378457600080fd5b6000613792848285016134f7565b91505092915050565b6000602082840312156137ad57600080fd5b60006137bb848285016135ae565b91505092915050565b6000602082840312156137d657600080fd5b60006137e4848285016135c3565b91505092915050565b60006137f9838361382d565b60208301905092915050565b60006138118383613b09565b905092915050565b60006138258383613b59565b905092915050565b613836816141ce565b82525050565b613845816141ce565b82525050565b600061385682614042565b6138608185614095565b935061386b83614012565b8060005b8381101561389c57815161388388826137ed565b975061388e8361406e565b92505060018101905061386f565b5085935050505092915050565b60006138b48261404d565b6138be81856140a6565b9350836020820285016138d085614022565b8060005b8581101561390c57848403895281516138ed8582613805565b94506138f88361407b565b925060208a019950506001810190506138d4565b50829750879550505050505092915050565b600061392982614058565b61393381856140b7565b93508360208202850161394585614032565b8060005b8581101561398157848403895281516139628582613819565b945061396d83614088565b925060208a01995050600181019050613949565b50829750879550505050505092915050565b61399c816141e0565b82525050565b60006139ad82614063565b6139b781856140c8565b93506139c7818560208601614225565b6139d081614391565b840191505092915050565b60006139e682614063565b6139f081856140d9565b9350613a00818560208601614225565b613a0981614391565b840191505092915050565b6000613a216011836140d9565b9150613a2c826143a2565b602082019050919050565b6000613a446026836140d9565b9150613a4f826143cb565b604082019050919050565b6000613a67602f836140d9565b9150613a728261441a565b604082019050919050565b6000613a8a6019836140d9565b9150613a9582614469565b602082019050919050565b6000613aad6019836140d9565b9150613ab882614492565b602082019050919050565b6000613ad06018836140d9565b9150613adb826144bb565b602082019050919050565b6000613af36018836140d9565b9150613afe826144e4565b602082019050919050565b6000606083016000830151613b216000860182613cd5565b5060208301518482036020860152613b3982826139a2565b9150506040830151613b4e6040860182613cd5565b508091505092915050565b600061010083016000830151613b72600086018261382d565b5060208301518482036020860152613b8a82826139a2565b91505060408301518482036040860152613ba482826139a2565b9150506060830151613bb96060860182613cd5565b506080830151613bcc6080860182613cd5565b5060a0830151613bdf60a0860182613cd5565b5060c0830151613bf260c0860182613cd5565b5060e083015184820360e0860152613c0a82826138a9565b9150508091505092915050565b600061010083016000830151613c30600086018261382d565b5060208301518482036020860152613c4882826139a2565b91505060408301518482036040860152613c6282826139a2565b9150506060830151613c776060860182613cd5565b506080830151613c8a6080860182613cd5565b5060a0830151613c9d60a0860182613cd5565b5060c0830151613cb060c0860182613cd5565b5060e083015184820360e0860152613cc882826138a9565b9150508091505092915050565b613cde8161420c565b82525050565b613ced8161420c565b82525050565b6000602082019050613d08600083018461383c565b92915050565b6000604082019050613d23600083018561383c565b613d30602083018461383c565b9392505050565b6000606082019050613d4c600083018661383c565b613d59602083018561383c565b613d666040830184613ce4565b949350505050565b600060e082019050613d83600083018a61383c565b8181036020830152613d9581896139db565b90508181036040830152613da981886139db565b9050613db86060830187613ce4565b613dc56080830186613ce4565b613dd260a0830185613ce4565b613ddf60c0830184613ce4565b98975050505050505050565b6000604082019050613e00600083018561383c565b613e0d6020830184613ce4565b9392505050565b60006020820190508181036000830152613e2e818461384b565b905092915050565b60006020820190508181036000830152613e50818461391e565b905092915050565b6000602082019050613e6d6000830184613993565b92915050565b60006020820190508181036000830152613e8c81613a14565b9050919050565b60006020820190508181036000830152613eac81613a37565b9050919050565b60006020820190508181036000830152613ecc81613a5a565b9050919050565b60006020820190508181036000830152613eec81613a7d565b9050919050565b60006020820190508181036000830152613f0c81613aa0565b9050919050565b60006020820190508181036000830152613f2c81613ac3565b9050919050565b60006020820190508181036000830152613f4c81613ae6565b9050919050565b60006020820190508181036000830152613f6d8184613c17565b905092915050565b6000602082019050613f8a6000830184613ce4565b92915050565b6000613f9a613fab565b9050613fa6828261428a565b919050565b6000604051905090565b600067ffffffffffffffff821115613fd057613fcf614362565b5b602082029050602081019050919050565b600067ffffffffffffffff821115613ffc57613ffb614362565b5b61400582614391565b9050602081019050919050565b6000819050602082019050919050565b6000819050602082019050919050565b6000819050602082019050919050565b600081519050919050565b600081519050919050565b600081519050919050565b600081519050919050565b6000602082019050919050565b6000602082019050919050565b6000602082019050919050565b600082825260208201905092915050565b600082825260208201905092915050565b600082825260208201905092915050565b600082825260208201905092915050565b600082825260208201905092915050565b60006140f58261420c565b91506141008361420c565b9250827fffffffffffffffffffffffffffffffffffffffffffffffffffffffffffffffff0382111561413557614134614304565b5b828201905092915050565b600061414b8261420c565b91506141568361420c565b9250817fffffffffffffffffffffffffffffffffffffffffffffffffffffffffffffffff048311821515161561418f5761418e614304565b5b828202905092915050565b60006141a58261420c565b91506141b08361420c565b9250828210156141c3576141c2614304565b5b828203905092915050565b60006141d9826141ec565b9050919050565b60008115159050919050565b600073ffffffffffffffffffffffffffffffffffffffff82169050919050565b6000819050919050565b82818337600083830152505050565b60005b83811015614243578082015181840152602081019050614228565b83811115614252576000848401525b50505050565b6000600282049050600182168061427057607f821691505b6020821081141561428457614283614333565b5b50919050565b61429382614391565b810181811067ffffffffffffffff821117156142b2576142b1614362565b5b80604052505050565b60006142c68261420c565b91507fffffffffffffffffffffffffffffffffffffffffffffffffffffffffffffffff8214156142f9576142f8614304565b5b600182019050919050565b7f4e487b7100000000000000000000000000000000000000000000000000000000600052601160045260246000fd5b7f4e487b7100000000000000000000000000000000000000000000000000000000600052602260045260246000fd5b7f4e487b7100000000000000000000000000000000000000000000000000000000600052604160045260246000fd5b6000601f19601f8301169050919050565b7f616c6c6f77616e6365206e6f7420736574000000000000000000000000000000600082015250565b7f63616e6e6f7420776974686472617720696e2066697273742066756e64696e6760008201527f2070686173650000000000000000000000000000000000000000000000000000602082015250565b7f636f6e7472616374206973206e6f7420616c6c6f77656420746f207472616e6660008201527f7365722075736572732066756e64730000000000000000000000000000000000602082015250565b7f7573657220686173206e6f7420656e6f75676820746f6b656e00000000000000600082015250565b7f66756e64696e67207068617365206e6f74206163746976652e00000000000000600082015250565b7f66756e64696e67207068617365206e6f74206163746976650000000000000000600082015250565b7f6c6174657374206d696c6573746f6e6520726561636865640000000000000000600082015250565b614516816141ce565b811461452157600080fd5b50565b61452d816141e0565b811461453857600080fd5b50565b6145448161420c565b811461454f57600080fd5b5056fea2646970667358221220b98996ba0808ce50319225a59c6b8a1e1ffc788e3f74f509dad70a20406580d264736f6c63430008020033",
  "linkReferences": {},
  "deployedLinkReferences": {}
}